{
  "contractName": "documentVerification",
  "abi": [
    {
      "inputs": [],
      "payable": false,
      "stateMutability": "nonpayable",
      "type": "constructor"
    },
    {
      "constant": false,
      "inputs": [
        {
          "internalType": "string",
          "name": "typeOfDocument",
          "type": "string"
        },
        {
          "internalType": "string",
          "name": "docId",
          "type": "string"
        },
        {
          "internalType": "string",
          "name": "_hash",
          "type": "string"
        }
      ],
      "name": "setDocument",
      "outputs": [],
      "payable": false,
      "stateMutability": "nonpayable",
      "type": "function"
    },
    {
      "constant": true,
      "inputs": [
        {
          "internalType": "string",
          "name": "typeOfDocument",
          "type": "string"
        },
        {
          "internalType": "string",
          "name": "docId",
          "type": "string"
        }
      ],
      "name": "getDocument",
      "outputs": [
        {
          "internalType": "string",
          "name": "document_name",
          "type": "string"
        },
        {
          "internalType": "string",
          "name": "document_number",
          "type": "string"
        },
        {
          "internalType": "string",
          "name": "document_hash",
          "type": "string"
        },
        {
          "internalType": "address",
          "name": "uploaded_by",
          "type": "address"
        }
      ],
      "payable": false,
      "stateMutability": "view",
      "type": "function"
    }
  ],
  "bytecode": "0x608060405234801561001057600080fd5b50600280546001600160a01b03191633179055610cf9806100326000396000f3fe608060405234801561001057600080fd5b50600436106100365760003560e01c8063297df11e1461003b57806353ec8711146101eb575b600080fd5b6101e96004803603606081101561005157600080fd5b810190602081018135600160201b81111561006b57600080fd5b82018360208201111561007d57600080fd5b803590602001918460018302840111600160201b8311171561009e57600080fd5b91908080601f0160208091040260200160405190810160405280939291908181526020018383808284376000920191909152509295949360208101935035915050600160201b8111156100f057600080fd5b82018360208201111561010257600080fd5b803590602001918460018302840111600160201b8311171561012357600080fd5b91908080601f0160208091040260200160405190810160405280939291908181526020018383808284376000920191909152509295949360208101935035915050600160201b81111561017557600080fd5b82018360208201111561018757600080fd5b803590602001918460018302840111600160201b831117156101a857600080fd5b91908080601f016020809104026020016040519081016040528093929190818152602001838380828437600092019190915250929550610467945050505050565b005b6103146004803603604081101561020157600080fd5b810190602081018135600160201b81111561021b57600080fd5b82018360208201111561022d57600080fd5b803590602001918460018302840111600160201b8311171561024e57600080fd5b91908080601f0160208091040260200160405190810160405280939291908181526020018383808284376000920191909152509295949360208101935035915050600160201b8111156102a057600080fd5b8201836020820111156102b257600080fd5b803590602001918460018302840111600160201b831117156102d357600080fd5b91908080601f0160208091040260200160405190810160405280939291908181526020018383808284376000920191909152509295506107dd945050505050565b604080516001600160a01b0383166060820152608080825286519082015285519091829160208084019284019160a08501918a019080838360005b8381101561036757818101518382015260200161034f565b50505050905090810190601f1680156103945780820380516001836020036101000a031916815260200191505b50848103835287518152875160209182019189019080838360005b838110156103c75781810151838201526020016103af565b50505050905090810190601f1680156103f45780820380516001836020036101000a031916815260200191505b50848103825286518152865160209182019188019080838360005b8381101561042757818101518382015260200161040f565b50505050905090810190601f1680156104545780820380516001836020036101000a031916815260200191505b5097505050505050505060405180910390f35b81600080826040518082805190602001908083835b6020831061049b5780518252601f19909201916020918201910161047c565b51815160209384036101000a6000190180199092169116179052920194855250604051938490030190922060030154600160a01b900460ff161591506104e59050575060016104e9565b5060005b801561053c576040805162461bcd60e51b815260206004820152601960248201527f446f63756d656e7420616c72656164792075706c6f6164656400000000000000604482015290519081900360640190fd5b6002546001600160a01b0316331461059b576040805162461bcd60e51b815260206004820152601a60248201527f6f6e6c79206f776e65722063616e2075706c6f61642064617461000000000000604482015290519081900360640190fd5b6040518060a00160405280868152602001858152602001848152602001336001600160a01b03168152602001600115158152506000856040518082805190602001908083835b602083106106005780518252601f1990920191602091820191016105e1565b51815160209384036101000a600019018019909216911617905292019485525060405193849003810190932084518051919461064194508593500190610c29565b50602082810151805161065a9260018501920190610c29565b5060408201518051610676916002840191602090910190610c29565b50606082810151600390920180546080948501511515600160a01b0260ff60a01b196001600160a01b039095166001600160a01b03199092169190911793909316929092179091556040805160a08101825288815260208082018990528183018890523393820193909352600193810184905290518851919392899282918401908083835b6020831061071a5780518252601f1990920191602091820191016106fb565b51815160209384036101000a600019018019909216911617905292019485525060405193849003810190932084518051919461075b94508593500190610c29565b5060208281015180516107749260018501920190610c29565b5060408201518051610790916002840191602090910190610c29565b506060820151600390910180546080909301511515600160a01b0260ff60a01b196001600160a01b039093166001600160a01b031990941693909317919091169190911790555050505050565b6060806060600080856040518082805190602001908083835b602083106108155780518252601f1990920191602091820191016107f6565b51815160209384036101000a6000190180199092169116179052920194855250604051938490030190922060030154600160a01b900460ff1691505080156108c757506001866040518082805190602001908083835b6020831061088a5780518252601f19909201916020918201910161086b565b51815160209384036101000a6000190180199092169116179052920194855250604051938490030190922060030154600160a01b900460ff169150505b15610c20576000856040518082805190602001908083835b602083106108fe5780518252601f1990920191602091820191016108df565b51815160209384036101000a6000190180199092169116179052920194855250604051938490038101842089519094600094508a9350918291908401908083835b6020831061095e5780518252601f19909201916020918201910161093f565b6001836020036101000a03801982511681845116808217855250505050505090500191505090815260200160405180910390206001016000876040518082805190602001908083835b602083106109c65780518252601f1990920191602091820191016109a7565b6001836020036101000a03801982511681845116808217855250505050505090500191505090815260200160405180910390206002016000886040518082805190602001908083835b60208310610a2e5780518252601f199092019160209182019101610a0f565b518151600019602094850361010090810a82019283169219939093169190911790925294909201968752604080519788900382018820600301548b54601f60026001831615909802909501169590950492830182900482028801820190528187526001600160a01b03909316959450889350918401905082828015610af45780601f10610ac957610100808354040283529160200191610af4565b820191906000526020600020905b815481529060010190602001808311610ad757829003601f168201915b5050865460408051602060026001851615610100026000190190941693909304601f810184900484028201840190925281815295995088945092508401905082828015610b825780601f10610b5757610100808354040283529160200191610b82565b820191906000526020600020905b815481529060010190602001808311610b6557829003601f168201915b5050855460408051602060026001851615610100026000190190941693909304601f810184900484028201840190925281815295985087945092508401905082828015610c105780601f10610be557610100808354040283529160200191610c10565b820191906000526020600020905b815481529060010190602001808311610bf357829003601f168201915b5050505050915093509350935093505b92959194509250565b828054600181600116156101000203166002900490600052602060002090601f016020900481019282601f10610c6a57805160ff1916838001178555610c97565b82800160010185558215610c97579182015b82811115610c97578251825591602001919060010190610c7c565b50610ca3929150610ca7565b5090565b610cc191905b80821115610ca35760008155600101610cad565b9056fea265627a7a72315820b743fe909ba60daed29601f662eace5dca268fd1f80a5f4b8741f1100611f14264736f6c63430005100032",
  "source": "pragma solidity ^0.5.16;\r\n\r\n/*\r\nContract name documentVerification\r\nIt has a structure named verification consisting of various variables\r\n*/\r\ncontract documentVerification\r\n{\r\n    struct verification{\r\n        string document_name; //type of document example birthcertificate,marksheet,etc.\r\n        string document_number; //Every document has a valid number. This variable stores that number.\r\n        string document_hash; //document hash\r\n        address uploaded_by; //It stores the address of person who uploaded the documnent.\r\n        bool value; //It is used to check whether the document has been upoaded previously or not.\r\n    }\r\n    \r\n    mapping(string => verification) hash; //It maps the structure with unique hash of every document.\r\n    mapping(string => verification) hash1;\r\n\r\n    address owner;\r\n    constructor() public {\r\n        owner=msg.sender;\r\n    }\r\n    modifier ownerOnly{\r\n        require(owner==msg.sender, 'only owner can upload data');\r\n        _;\r\n    }\r\n    \r\n    /*function setDocument is used to upload the document on blockchain\r\n    It takes 3 inputs- document_name, document_number and hash of the document\r\n    */\r\n   function setDocument(string memory typeOfDocument,string memory docId,string memory _hash) necessary(docId) ownerOnly public{\r\n        hash[docId]=verification(typeOfDocument,docId,_hash,msg.sender,true);\r\n        hash1[typeOfDocument]=verification(typeOfDocument,docId,_hash,msg.sender,true);\r\n    }\r\n    \r\n    /* function getDocument is used to check the validity of the document\r\n    Instead of assigning any id to uploaded document to verify in future,\r\n    it takes document hash as input and tells if the document is present along with the details \r\n    of the document.\r\n    */\r\n    function getDocument( string memory typeOfDocument,string memory docId) public view returns(string memory document_name,string memory document_number,string memory document_hash,address uploaded_by){\r\n        if(hash[docId].value && hash1[typeOfDocument].value){\r\n            return(hash[docId].document_name,hash[docId].document_number,hash[docId].document_hash,hash[docId].uploaded_by);\r\n        }\r\n    }\r\n    \r\n    //modifier checks whether a document has been pre uploaded or not.\r\n    //If it exists, message 'Document already uploaded' is displayed.\r\n    modifier necessary(string memory docId){\r\n        bool present;\r\n        if(hash[docId].value)\r\n            present=true;\r\n        else\r\n            present=false;\r\n        require(!present,'Document already uploaded');\r\n        _;\r\n    }\r\n    \r\n   \r\n}",
  "sourcePath": "C:/Users/PraNav/Desktop/sep09/contracts/documentVerification.sol",
  "compiler": {
    "name": "solc",
    "version": "0.5.16+commit.9c3226ce.Emscripten.clang"
  },
  "schemaVersion": "3.3.4",
  "updatedAt": "2021-04-08T07:04:12.218Z",
  "networkType": "ethereum",
  "devdoc": {
    "methods": {}
  },
  "userdoc": {
    "methods": {}
  }
}